:100000000C9472000C9493000C9493000C94930045
:100010000C9493000C9493000C9493000C94930014
:100020000C9493000C9493000C9493000C94930004
:100030000C9493000C9493000C9493000C949300F4
:100040000C9493000C94C7130C94EE130C9493002F
:100050000C9491130C94F5000C9421010C949500D0
:100060000C9493000C9493000C9493000C949300C4
:100070000C9493000C9493000C9493000C949300B4
:100080000C9493000C9493000C9493000C949300A4
:100090000C9493000C9493000C9493000C94930094
:1000A0000C9493000C9493000C9493000C94930084
:1000B0000C9493000C9493000C9493000C94930074
:1000C0000C9493000C9493000C9493000C94930064
:1000D0000C9493000C9493000C9493000C94930054
:1000E0000C94930011241FBECFEFD1E2DEBFCDBF31
:1000F00000E00CBF12E0A0E0B2E0EEE4FDE200E0C0
:100100000BBF02C007900D92A230B107D9F712E0E1
:10011000A2E0B2E001C01D92A431B107E1F70E9454
:1001200040080C94C0140C9400001F920F920FB65C
:100130000F9200905B000F9211248F93AF93BF93A7
:10014000EF93FF93DF93CF93CDB7DEB7E7E4F0E013
:1001500080818823A1F4E8E4F0E08081882379F4A9
:10016000A2E0B1E0E2E0F1E080818F7B8C93A1E33B
:10017000B0E0E1E3F0E080818F7D8C9327C0E7E47D
:10018000F0E08081882379F0A1E3B0E0E1E3F0E0E2
:1001900080818F7D8C93A2E0B1E0E2E0F1E080818C
:1001A00080648C9313C0E8E4F0E08081882371F0D0
:1001B000A2E0B1E0E2E0F1E080818F7B8C93A1E3EB
:1001C000B0E0E1E3F0E0808180628C93CF91DF9139
:1001D000FF91EF91BF91AF918F910F9000925B00D3
:1001E0000F900FBE0F901F9018951F920F920FB691
:1001F0000F9200905B000F9211248F93AF93BF93E7
:10020000EF93FF93DF93CF93CDB7DEB7E7E4F0E052
:1002100080818F3F39F0A2E0B1E0E2E0F1E080813F
:100220008F7B8C93CF91DF91FF91EF91BF91AF9135
:100230008F910F9000925B000F900FBE0F901F9058
:1002400018951F920F920FB60F9200905B000F92BD
:1002500011248F93AF93BF93EF93FF93DF93CF93CB
:10026000CDB7DEB7E8E4F0E080818F3F39F0A1E35D
:10027000B0E0E1E3F0E080818F7D8C93CF91DF915E
:10028000FF91EF91BF91AF918F910F9000925B0022
:100290000F900FBE0F901F901895DF93CF93CDB79F
:1002A000DEB7A1E0B1E0E1E0F1E0808180648C9311
:1002B000A0E3B0E0E0E3F0E0808180628C93A2E014
:1002C000B1E0E2E0F1E080818F7B8C93A1E3B0E0CC
:1002D000E1E3F0E080818F7D8C93E4E4F0E0108234
:1002E000E5E4F0E083E08083E7E4F0E01082E8E416
:1002F000F0E01082EEE6F0E087E080837894CF9122
:10030000DF910895DF93CF930F92CDB7DEB7898346
:1003100089818C390CF446C0898185360CF042C045
:100320008981882304F1E8E4F0E01082E7E4F0E05A
:100330008981482F552747FD5095CA019C01220FFE
:10034000331FC9019695982F882797958795821B0B
:10035000930B840F951F24E630E0B9010E947E16AE
:10036000CB0180831FC0E7E4F0E01082E8E4F0E016
:100370008981482F552747FD5095CA019C01220FBE
:10038000331FC9019695982F882797958795821BCB
:10039000930B840F951F2CE93FEFB9010E947E1645
:1003A000CB0180830F90CF91DF910895DF93CF939E
:1003B0000F920F92CDB7DEB79A83898389819A8194
:1003C00081309105C1F5A8E2B0E0E8E2F0E080817B
:1003D0008F7D8C93A8E2B0E0E8E2F0E0808181605C
:1003E0008C93A8E2B0E0E8E2F0E080818F7E8C930D
:1003F000ABE2B0E0EBE2F0E0808180688C93A4E3B4
:10040000B0E0E4E3F0E0808184608C93A8E2B0E0A7
:10041000E8E2F0E080818D7F8C93A8E2B0E0E8E232
:10042000F0E080818F778C93A8E2B0E0E8E2F0E022
:10043000808180648C930F900F90CF91DF9108950D
:10044000DF93CF930F920F92CDB7DEB79A83898354
:1004500089819A8181309105C1F5A8E2B0E0E8E296
:10046000F0E0808180628C93A8E2B0E0E8E2F0E006
:10047000808181608C93A8E2B0E0E8E2F0E08081C6
:100480008F7E8C93ABE2B0E0EBE2F0E0808180689D
:100490008C93A4E3B0E0E4E3F0E080818B7F8C9365
:1004A000A8E2B0E0E8E2F0E080818D7F8C93A8E2E2
:1004B000B0E0E8E2F0E0808180688C93A8E2B0E0F0
:1004C000E8E2F0E0808180648C930F900F90CF91F0
:1004D000DF910895DF93CF930F920F92CDB7DEB7E0
:1004E0009A83898389819A8181309105C1F5A8E237
:1004F000B0E0E8E2F0E080818F7D8C93A8E2B0E08C
:10050000E8E2F0E080818E7F8C93A8E2B0E0E8E240
:10051000F0E080818F7E8C93ABE2B0E0EBE2F0E024
:1005200080818F778C93A4E3B0E0E4E3F0E08081F6
:100530008B7F8C93A8E2B0E0E8E2F0E080818D7FD1
:100540008C93A8E2B0E0E8E2F0E080818F778C93B2
:10055000A8E2B0E0E8E2F0E080818F7B8C930F901E
:100560000F90CF91DF910895DF93CF930F920F9269
:10057000CDB7DEB79A83898389819A8181309105CD
:10058000C1F5A8E2B0E0E8E2F0E080818F7D8C93D5
:10059000A8E2B0E0E8E2F0E0808181608C93A8E21C
:1005A000B0E0E8E2F0E0808180618C93ABE2B0E003
:1005B000EBE2F0E0808180688C93A4E3B0E0E4E3B8
:1005C000F0E080818B7F8C93A8E2B0E0E8E2F0E07D
:1005D00080818D7F8C93A8E2B0E0E8E2F0E080813A
:1005E00080688C93A8E2B0E0E8E2F0E0808180646B
:1005F0008C930F900F90CF91DF910895DF93CF935D
:100600000F920F92CDB7DEB79A83898389819A8141
:1006100081309105C1F5A8E2B0E0E8E2F0E0808128
:100620008F7D8C93A8E2B0E0E8E2F0E080818E7FDD
:100630008C93A8E2B0E0E8E2F0E080818F7E8C93BA
:10064000ABE2B0E0EBE2F0E080818F778C93A4E343
:10065000B0E0E4E3F0E080818B7F8C93A8E2B0E02F
:10066000E8E2F0E080818D7F8C93A8E2B0E0E8E2E0
:10067000F0E0808180688C93A8E2B0E0E8E2F0E0EE
:10068000808180648C930F900F90CF91DF910895BB
:10069000DF93CF930F920F92CDB7DEB79A83898302
:1006A00089819A8181309105C1F5A8E2B0E0E8E244
:1006B000F0E0808180628C93A8E2B0E0E8E2F0E0B4
:1006C000808181608C93A8E2B0E0E8E2F0E0808174
:1006D00080618C93ABE2B0E0EBE2F0E080818F7759
:1006E0008C93A4E3B0E0E4E3F0E080818B7F8C9313
:1006F000A8E2B0E0E8E2F0E0808182608C93A8E2BA
:10070000B0E0E8E2F0E0808180688C93A8E2B0E09D
:10071000E8E2F0E0808180648C930F900F90CF919D
:10072000DF910895DF93CF930F920F92CDB7DEB78D
:100730009A83898389819A8181309105C1F5A8E2E4
:10074000B0E0E8E2F0E080818F7D8C93A8E2B0E039
:10075000E8E2F0E080818E7F8C93A8E2B0E0E8E2EE
:10076000F0E080818F7E8C93ABE2B0E0EBE2F0E0D2
:1007700080818F778C93A4E3B0E0E4E3F0E08081A4
:100780008B7F8C93A8E2B0E0E8E2F0E080818D7F7F
:100790008C93A8E2B0E0E8E2F0E0808180688C937E
:1007A000A8E2B0E0E8E2F0E0808180648C930F90F2
:1007B0000F90CF91DF910895DF93CF930F920F9217
:1007C000CDB7DEB79A83898389819A81813091057B
:1007D000C1F5A8E2B0E0E8E2F0E0808180628C93AD
:1007E000A8E2B0E0E8E2F0E080818E7F8C93A8E29E
:1007F000B0E0E8E2F0E0808180618C93ABE2B0E0B1
:10080000EBE2F0E0808180688C93A4E3B0E0E4E365
:10081000F0E080818B7F8C93A8E2B0E0E8E2F0E02A
:10082000808182608C93A8E2B0E0E8E2F0E0808111
:1008300080688C93A8E2B0E0E8E2F0E08081806418
:100840008C930F900F90CF91DF910895DF93CF930A
:100850000F920F92CDB7DEB79A83898389819A81EF
:1008600081309105C1F5A8E2B0E0E8E2F0E08081D6
:100870008F7D8C93A8E2B0E0E8E2F0E080818E7F8B
:100880008C93A8E2B0E0E8E2F0E080818F7E8C9368
:10089000ABE2B0E0EBE2F0E080818F778C93A4E3F1
:1008A000B0E0E4E3F0E080818B7F8C93A8E2B0E0DD
:1008B000E8E2F0E080818D7F8C93A8E2B0E0E8E28E
:1008C000F0E0808180688C93A8E2B0E0E8E2F0E09C
:1008D000808180648C930F900F90CF91DF91089569
:1008E000DF93CF930F920F92CDB7DEB79A838983B0
:1008F00089819A8181309105C1F5A8E2B0E0E8E2F2
:10090000F0E080818F7D8C93A8E2B0E0E8E2F0E037
:10091000808181608C93A8E2B0E0E8E2F0E0808121
:100920008F7E8C93ABE2B0E0EBE2F0E080818068F8
:100930008C93A4E3B0E0E4E3F0E080818B7F8C93C0
:10094000A8E2B0E0E8E2F0E080818D7F8C93A8E23D
:10095000B0E0E8E2F0E0808180688C93A8E2B0E04B
:10096000E8E2F0E0808180648C930F900F90CF914B
:10097000DF910895DF93CF930F920F92CDB7DEB73B
:100980009A83898389819A8181309105C1F5A8E292
:10099000B0E0E8E2F0E080818F7D8C93A8E2B0E0E7
:1009A000E8E2F0E080818E7F8C93A8E2B0E0E8E29C
:1009B000F0E080818F7E8C93ABE2B0E0EBE2F0E080
:1009C00080818F778C93A4E3B0E0E4E3F0E0808152
:1009D0008B7F8C93A8E2B0E0E8E2F0E080818D7F2D
:1009E0008C93A8E2B0E0E8E2F0E0808180688C932C
:1009F000A8E2B0E0E8E2F0E0808180648C930F90A0
:100A00000F90CF91DF910895DF93CF930F920F92C4
:100A1000CDB7DEB79A83898389819A818130910528
:100A200039F4A2E2B0E0E2E2F0E0808180648C93ED
:100A30000F900F90CF91DF910895DF93CF930F9296
:100A40000F92CDB7DEB79A83898389819A818130ED
:100A5000910539F4A2E2B0E0E2E2F0E080818F7B20
:100A60008C930F900F90CF91DF910895DF93CF93E8
:100A70000F920F92CDB7DEB79A83898389819A81CD
:100A80008130910539F4A2E2B0E0E2E2F0E0808149
:100A900080688C930F900F90CF91DF910895DF9332
:100AA000CF930F920F92CDB7DEB79A838983898156
:100AB0009A818130910539F4A2E2B0E0E2E2F0E0FF
:100AC00080818F778C930F900F90CF91DF91089555
:100AD000DF93CF930F920F92CDB7DEB79A838983BE
:100AE00089819A818130910539F4A2E2B0E0E2E295
:100AF000F0E0808181608C930F900F90CF91DF9117
:100B00000895DF93CF930F920F92CDB7DEB79A83FC
:100B1000898389819A818130910539F4A2E2B0E01C
:100B2000E2E2F0E080818E7F8C930F900F90CF9166
:100B3000DF910895DF93CF930F920F92CDB7DEB779
:100B40009A83898389819A818130910539F4A2E25F
:100B5000B0E0E2E2F0E0808182608C930F900F9031
:100B6000CF91DF910895DF93CF930F920F92CDB77E
:100B7000DEB79A83898389819A818130910539F41E
:100B8000A2E2B0E0E2E2F0E080818D7F8C930F90F2
:100B90000F90CF91DF910895DF93CF930F920F9233
:100BA000CDB7DEB79A83898389819A818130910597
:100BB00039F4A5E2B0E0E5E2F0E0808188608C9352
:100BC0000F900F90CF91DF910895DF93CF930F9205
:100BD0000F92CDB7DEB79A83898389819A8181305C
:100BE000910539F4A5E2B0E0E5E2F0E08081877F8D
:100BF0008C930F900F90CF91DF910895DF93CF9357
:100C00000F920F92CDB7DEB79A83898389819A813B
:100C10008130910539F4A5E2B0E0E5E2F0E08081B1
:100C200084608C930F900F90CF91DF910895DF93A4
:100C3000CF930F920F92CDB7DEB79A8389838981C4
:100C40009A818130910539F4A5E2B0E0E5E2F0E067
:100C500080818B7F8C930F900F90CF91DF910895BF
:100C6000DF93CF930F920F92CDB7DEB79A8389832C
:100C700089819A818130910539F4ABE2B0E0EBE2F1
:100C8000F0E0808184608C930F900F90CF91DF9182
:100C90000895DF93CF930F920F92CDB7DEB79A836B
:100CA000898389819A818130910539F4ABE2B0E082
:100CB000EBE2F0E080818B7F8C930F900F90CF91CF
:100CC000DF910895DF93CF93CDB7DEB76E970FB660
:100CD000F894DEBF0FBECDBF9E8F8D8F8D8D9E8D04
:100CE0008130910509F000C1A8E2B0E0E8E2F0E04F
:100CF00080818B7F8C93A8E2B0E0E8E2F0E0808115
:100D000088608C9380E090E0A8E4B3E4898F9A8FA8
:100D1000AB8FBC8F698D7A8D8B8D9C8D20E030E000
:100D20004AE755E40E941316DC01CB018D8B9E8BA4
:100D3000AF8BB88F6D897E898F89988D20E030E0E8
:100D400040E85FE30E942C1588232CF481E090E0BA
:100D50009C8B8B8B3FC06D897E898F89988D20E01D
:100D60003FEF4FE757E40E940F1618164CF5698DB8
:100D70007A8D8B8D9C8D20E030E040E251E40E9422
:100D80001316DC01CB01BC01CD010E943015DC0142
:100D9000CB019C8B8B8B0FC080E991E09A8B898B68
:100DA00089899A890197F1F79A8B898B8B899C891C
:100DB00001979C8B8B8B8B899C89009769F714C05A
:100DC0006D897E898F89988D0E943015DC01CB0159
:100DD0009C8B8B8B8B899C89988B8F878F8598892F
:100DE0000197F1F7988B8F87A8E2B0E0E8E2F0E096
:100DF000808184608C93A8E2B0E0E8E2F0E080813A
:100E0000877F8C9380E090E0A8E4B3E48B879C8795
:100E1000AD87BE876B857C858D859E8520E030E023
:100E20004AE755E40E941316DC01CB018F839887B3
:100E3000A987BA876F81788589859A8520E030E017
:100E400040E85FE30E942C1588232CF481E090E0B9
:100E50009E838D833FC06F81788589859A8520E048
:100E60003FEF4FE757E40E940F1618164CF56B85BD
:100E70007C858D859E8520E030E040E251E40E9433
:100E80001316DC01CB01BC01CD010E943015DC0141
:100E9000CB019E838D830FC080E991E09C838B837F
:100EA0008B819C810197F1F79C838B838D819E813F
:100EB00001979E838D838D819E81009769F714C071
:100EC0006F81788589859A850E943015DC01CB0178
:100ED0009E838D838D819E819A83898389819A8166
:100EE0000197F1F79A8389836E960FB6F894DEBF67
:100EF0000FBECDBFCF91DF910895DF93CF930F92B7
:100F00000F92CDB7DEB79A83898389819A81813028
:100F1000910571F4A8E2B0E0E8E2F0E0808184603D
:100F20008C93A8E2B0E0E8E2F0E0808188608C93E6
:100F30000F900F90CF91DF910895DF93CF93CDB7AE
:100F4000DEB70E944D010E941514CF91DF910895E4
:100F5000DF93CF930F920F92CDB7DEB79A83898339
:100F600089819A818130910531F480EB0E9442148D
:100F70008AEB0E9481140F900F90CF91DF9108951A
:100F8000DF93CF930F920F92CDB7DEB79A83898309
:100F900089819A818130910531F480E50E94421463
:100FA00086E40E9481140F900F90CF91DF910895F5
:100FB000DF93CF93CDB7DEB780E00E948201CF915F
:100FC000DF910895DF93CF93CDB7DEB78FED0E9409
:100FD0008201CF91DF910895DF93CF93CDB7DEB734
:100FE00081E20E948201CF91DF910895DF93CF9338
:100FF000CDB7DEB78091040290910502A091060260
:10100000B091070220910C0230910D0240910E0226
:1010100050910F02821B930BA40BB50B883823E170
:10102000920720E0A20720E0B20738F1E9E7F0E0FC
:101030008081282F30E08091000290910102821778
:101040009307BCF481E090E0909303028093020246
:101050008091040290910502A0910602B0910702CE
:1010600080930C0290930D02A0930E02B0930F0296
:1010700004C01092030210920202CF91DF910895F2
:101080000F931F93DF93CF93CDB7DEB7CA57D040EE
:101090000FB6F894DEBF0FBECDBF0E949D07A7E23A
:1010A000B0E0E7E2F0E0808180628C93A7E2B0E0FC
:1010B000E7E2F0E0808181608C93A7E2B0E0E7E2B4
:1010C000F0E0808180618C93AAE2B0E0EAE2F0E097
:1010D000808180688C93A3E3B0E0E3E3F0E080815B
:1010E00084608C93A7E2B0E0E7E2F0E08081826068
:1010F0008C93A7E2B0E0E7E2F0E0808180688C9317
:10110000A7E2B0E0E7E2F0E0808180648C93A1E2A6
:10111000B0E0E1E2F0E0808181608C93A1E2B0E098
:10112000E1E2F0E0808182608C93A1E2B0E0E1E254
:10113000F0E0808180648C93A1E2B0E0E1E2F0E035
:10114000808180688C93A4E2B0E0E4E2F0E08081EA
:1011500088608C93A4E2B0E0E4E2F0E080818460F7
:101160008C93A8E2B0E0E8E2F0E0808180628C93AA
:10117000A8E2B0E0E8E2F0E0808181608C93A8E230
:10118000B0E0E8E2F0E0808180618C93ABE2B0E017
:10119000EBE2F0E0808180688C93A4E3B0E0E4E3CC
:1011A000F0E0808184608C93A8E2B0E0E8E2F0E0B7
:1011B000808182608C93A8E2B0E0E8E2F0E0808178
:1011C00080688C93A8E2B0E0E8E2F0E0808180647F
:1011D0008C93A2E2B0E0E2E2F0E0808181608C9347
:1011E000A2E2B0E0E2E2F0E0808182608C93A2E2D1
:1011F000B0E0E2E2F0E0808180648C93A2E2B0E0B3
:10120000E2E2F0E0808180688C93A5E2B0E0E5E264
:10121000F0E0808188608C93A5E2B0E0E5E2F0E048
:10122000808184608C93AAE0B1E0EAE0F1E0808103
:101230008F7E8C93AAE0B1E0EAE0F1E080818F7BC1
:101240008C93AAE0B1E0EAE0F1E080818F7D8C939D
:10125000AAE0B1E0EAE0F1E080818B7F8C93AAE024
:10126000B1E0EAE0F1E080818D7F8C93A4E2B0E010
:10127000E4E2F0E080818D7F8C93AAE0B1E0EAE0C7
:10128000F1E080818F778C93A3E3B0E0E3E3F0E0BB
:1012900080818B7F8C93A3E3B0E0E3E3F0E0808177
:1012A0008E7F8C93FE01E958FF4F11821082FE0160
:1012B000EB58FF4F11821082FE01ED58FF4F118253
:1012C0001082FE01EF58FF4F11821082FE01E1599A
:1012D000FF4F11821082FE01E359FF4F81E090E041
:1012E00091838083FE01E559FF4F11821082FE0138
:1012F000E759FF4F11821082FE01E959FF4F118219
:101300001082FE01EB59FF4F11821082FE01ED5950
:10131000FF4F81E090E09183808381E090E00E9424
:10132000C00780E00E9482010C948413E9E0F1E0A0
:101330008081882F90E080749070009739F4FE01CE
:10134000E958FF4F81E090E091838083E9E0F1E08C
:101350008081882F90E080729070009739F4FE01B0
:10136000EB58FF4F81E090E091838083E9E0F1E06A
:101370008081882F90E080719070009739F4FE0191
:10138000ED58FF4F81E090E091838083E9E0F1E048
:101390008081882F90E084709070009739F4FE016E
:1013A000EF58FF4F81E090E091838083E9E0F1E026
:1013B0008081882F90E082709070009739F4FE0150
:1013C000E159FF4F81E090E091838083E3E2F0E018
:1013D0008081882F90E082709070009761F4FE0108
:1013E000E559FF4F81E090E091838083FE01E7594A
:1013F000FF4F11821082E9E0F1E08081882364F0E0
:10140000FE01E759FF4F81E090E091838083FE0168
:10141000E559FF4F11821082E2E3F0E08081882FCE
:1014200090E084709070009739F4FE01E959FF4F05
:1014300081E090E091838083E2E3F0E08081882F77
:1014400090E081709070009739F4FE01EB59FF4FE6
:1014500081E090E091838083FE01E359FF4F80811A
:101460009181EB969FAF8EAFEB97EB96EEADFFAD14
:10147000EB97E630F10509F427C4EB968EAD9FADEE
:10148000EB97873091059CF5EB96EEADFFADEB97B2
:10149000E330F10509F4A5C1EB968EAD9FADEB9756
:1014A0008430910594F4EB96EEADFFADEB97E1300F
:1014B000F10509F44FC0EB968EAD9FADEB978230EE
:1014C000910509F4EAC00C940913EB96EEADFFAD5B
:1014D000EB97E430F10509F4ABC2EB968EAD9FAD0E
:1014E000EB978530910509F4A3C30C940913EB968F
:1014F000EEADFFADEB97E930F10509F404C6EB96CC
:101500008EAD9FADEB978A30910594F4EB96EEADDE
:10151000FFADEB97E730F10509F4BCC4EB968EAD57
:101520009FADEB978830910509F417C50C9409130A
:10153000EB96EEADFFADEB97EA30F10509F4B6C6D8
:10154000EB968EAD9FADEB978B30910509F478C784
:101550000C94091381E090E00E94C00781E090E0C4
:101560000E94D60181E090E00E94360580E090E084
:101570000E944F0580E090E00E94680581E090E0C5
:101580000E94810580E090E00E949A0581E090E051
:101590000E94B30580E090E00E94040581E090E0A5
:1015A0000E941D0580E090E00E94FE0581E090E031
:1015B0000E94170680E090E00E94490681E090E0DA
:1015C0000E94300680E090E00E94CC0581E090E02F
:1015D0000E94E505FE01E559FF4F80819181813030
:1015E000910549F0FE01E759FF4F808191818130DB
:1015F000910509F049C081E090E00E94C00781E0B8
:1016000090E00E94D60181E090E00E94360580E0E3
:1016100090E00E944F0580E090E00E94680581E024
:1016200090E00E94810580E090E00E949A0581E0B0
:1016300090E00E94B30580E090E00E94040581E004
:1016400090E00E941D0580E090E00E94FE0581E090
:1016500090E00E94170680E090E00E94490681E039
:1016600090E00E94300681E090E00E94CC0580E08E
:1016700090E00E94E505FE01E359FF4F82E090E013
:10168000918380830C940913FE01E359FF4F81E09D
:1016900090E0918380830C94091381E090E00E9494
:1016A000C00781E090E00E94D60181E090E00E94B6
:1016B000360580E090E00E944F0580E090E00E94B7
:1016C000680581E090E00E94810580E090E00E9442
:1016D0009A0581E090E00E94B30580E090E00E94CE
:1016E000040581E090E00E941D0580E090E00E94EA
:1016F000FE0581E090E00E94170680E090E00E94E5
:10170000490681E090E00E94300681E090E00E946E
:10171000CC0580E090E00E94E505FE01E958FF4F0E
:10172000808191818130910509F053C0809102023E
:1017300090910302009709F04CC081E090E00E9474
:10174000C00781E090E00E94200281E090E00E94CA
:10175000620681E090E00E94360580E090E00E9401
:101760004F0580E090E00E94680581E090E00E94D3
:10177000810581E090E00E949A0580E090E00E945F
:10178000B30580E090E00E94040581E090E00E94B3
:101790001D0580E090E00E94FE0581E090E00E943F
:1017A000170680E090E00E94490681E090E00E94E8
:1017B000300681E090E00E94CC0580E090E00E943D
:1017C000E505FE01E359FF4F83E090E091838083BC
:1017D00020C7FE01E359FF4F82E090E091838083B0
:1017E00018C781E090E00E94C00781E090E00E946D
:1017F000200281E090E00E94620681E090E00E9479
:10180000360580E090E00E944F0580E090E00E9465
:10181000680581E090E00E94810581E090E00E94EF
:101820009A0580E090E00E94B30580E090E00E947D
:10183000040581E090E00E941D0580E090E00E9498
:10184000FE0581E090E00E94170680E090E00E9493
:10185000490681E090E00E94300681E090E00E941D
:10186000CC0580E090E00E94E505FE01E959FF4FBC
:10187000808191818130910549F0FE01EB59FF4F44
:10188000808191818130910509F0CAC081E090E0AA
:101890000E94FE05FE01E15AFF4F80E090E8ABE3B5
:1018A000B5E480839183A283B3838E01055A1F4FD1
:1018B000FE01E15AFF4F608171818281938120E0B6
:1018C00030E04AE755E40E941316DC01CB01F80131
:1018D00080839183A283B383FE01E55AFF4F608129
:1018E00071818281938120E030E040E85FE30E94D3
:1018F0002C15882344F4FE01E75AFF4F81E090E065
:101900009183808364C0FE01E55AFF4F608171813D
:101910008281938120E03FEF4FE757E40E940F164A
:1019200018160CF043C0FE01E15AFF4F608171812F
:101930008281938120E030E040E251E40E9413165E
:10194000DC01CB018E01075A1F4FBC01CD010E9463
:101950003015DC01CB01F801918380831FC0FE01AB
:10196000E95AFF4F80E991E091838083FE01E95AB3
:10197000FF4F808191810197F1F7FE01E95AFF4FF6
:1019800091838083DE01A75ABF4FFE01E75AFF4FC4
:1019900080819181019711969C938E93FE01E75A65
:1019A000FF4F808191810097D1F628C08E01075AA0
:1019B0001F4FFE01E55AFF4F608171818281938143
:1019C0000E943015DC01CB01F80191838083DE0198
:1019D000AB5ABF4FFE01E75AFF4F808191811196AC
:1019E0009C938E93FE01EB5AFF4F8081918101976A
:1019F000F1F7FE01EB5AFF4F91838083FE01E95915
:101A0000FF4F11821082FE01EB59FF4F11821082AD
:101A1000FE01E359FF4F83E090E091838083F9C595
:101A2000FE01E359FF4F84E090E091838083F1C58C
:101A300081E090E00E94C00781E090E00E942002D7
:101A400081E090E00E94620681E090E00E9436050D
:101A500080E090E00E944F0580E090E00E946805E1
:101A600081E090E00E94810581E090E00E949A056B
:101A700080E090E00E94B30580E090E00E940405C1
:101A800081E090E00E941D0580E090E00E94FE054C
:101A900081E090E00E94170680E090E00E944906F5
:101AA00081E090E00E94300681E090E00E94CC0549
:101AB00080E090E00E94E505FE01EF5AFF4F80E0D4
:101AC00090E0AAEFB4E480839183A283B3838E0174
:101AD000035B1F4FFE01EF5AFF4F608171818281CE
:101AE000938120E030E04AE755E40E941316DC01C0
:101AF000CB01F80180839183A283B383FE01E35B72
:101B0000FF4F608171818281938120E030E040E865
:101B10005FE30E942C15882344F4FE01E55BFF4F30
:101B200081E090E09183808364C0FE01E35BFF4F1E
:101B3000608171818281938120E03FEF4FE757E41C
:101B40000E940F1618160CF043C0FE01EF5AFF4F0B
:101B5000608171818281938120E030E040E251E434
:101B60000E941316DC01CB018E01055B1F4FBC01E7
:101B7000CD010E943015DC01CB01F80191838083F7
:101B80001FC0FE01E75BFF4F80E991E091838083F6
:101B9000FE01E75BFF4F808191810197F1F7FE0124
:101BA000E75BFF4F91838083DE01A55BBF4FFE01A2
:101BB000E55BFF4F80819181019711969C938E93F5
:101BC000FE01E55BFF4F808191810097D1F628C02F
:101BD0008E01055B1F4FFE01E35BFF4F608171814A
:101BE000828193810E943015DC01CB01F801918341
:101BF0008083DE01A95BBF4FFE01E55BFF4F808163
:101C0000918111969C938E93FE01E95BFF4F808139
:101C100091810197F1F7FE01E95BFF4F918380838A
:101C2000FE01E359FF4F85E090E091838083F1C48A
:101C300081E090E00E94A80781E090E00E942002ED
:101C400081E090E00E94620681E090E00E9436050B
:101C500080E090E00E944F0580E090E00E946805DF
:101C600081E090E00E94810581E090E00E949A0569
:101C700080E090E00E94B30580E090E00E940405BF
:101C800081E090E00E941D0580E090E00E94FE054A
:101C900081E090E00E94170680E090E00E944906F3
:101CA00081E090E00E94300681E090E00E94CC0547
:101CB00080E090E00E94E505FE01E359FF4F86E0D9
:101CC00090E091838083A5C481E090E00E94A80702
:101CD00081E090E00E94200281E090E00E94620694
:101CE00081E090E00E94360580E090E00E944F0580
:101CF00080E090E00E94680581E090E00E9481050C
:101D000081E090E00E949A0580E090E00E94B30597
:101D100080E090E00E94040581E090E00E941D05B3
:101D200080E090E00E94FE0581E090E00E941706AE
:101D300080E090E00E94490681E090E00E94300639
:101D400081E090E00E94CC0580E090E00E94E505F3
:101D5000FE01EF58FF4F80819181009751F40E945E
:101D6000D807FE01E359FF4F87E090E0918380831D
:101D700050C40E94EC07FE01ED5BFF4F80E090EC49
:101D8000AFE0B5E480839183A283B3838E01015CCD
:101D90001F4FFE01ED5BFF4F608171818281938156
:101DA00020E030E04AE755E40E941316DC01CB0145
:101DB000F80180839183A283B383FE01FF96608143
:101DC00071818281938120E030E040E85FE30E94EE
:101DD0002C1588232CF481E090E09EAF8DAF46C097
:101DE000FE01FF96608171818281938120E03FEF47
:101DF0004FE757E40E940F16181664F5FE01ED5BDD
:101E0000FF4F608171818281938120E030E040E268
:101E100051E40E941316DC01CB01BC01CD010E94EC
:101E20003015DC01CB019EAF8DAF0FC080E991E092
:101E30009CAF8BAF8BAD9CAD0197F1F79CAF8BAF97
:101E40008DAD9EAD01979EAF8DAF8DAD9EAD0097D0
:101E500069F716C0FE01FF966081718182819381CE
:101E60000E943015DC01CB019EAF8DAF8DAD9EADD4
:101E70009AAF89AF89AD9AAD0197F1F79AAF89AF63
:101E80000E94D807FE01E359FF4F87E090E091835D
:101E90008083BFC381E090E00E94A80781E090E0CA
:101EA0000E94480381E090E00E94620680E090E09A
:101EB0000E94360581E090E00E944F0580E090E0AE
:101EC0000E94680581E090E00E94810581E090E039
:101ED0000E949A0580E090E00E94B30581E090E0C6
:101EE0000E94040580E090E00E941D0580E090E0E3
:101EF0000E94FE0581E090E00E94170680E090E0DD
:101F00000E94490681E090E00E94300681E090E066
:101F10000E94CC0580E090E00E94E505FE01E559B5
:101F2000FF4F80819181009781F4FE01E759FF4FB7
:101F3000808191818130910541F4FE01E359FF4F89
:101F400088E090E09183808364C3FE01E359FF4FF2
:101F500087E090E0918380835CC381E090E00E9401
:101F6000A80781E090E00E94480381E090E00E9491
:101F7000620680E090E00E94360581E090E00E94D9
:101F80004F0580E090E00E94680581E090E00E94AB
:101F9000810580E090E00E949A0581E090E00E9437
:101FA000B30581E090E00E94040580E090E00E948B
:101FB0001D0580E090E00E94FE0581E090E00E9417
:101FC000170680E090E00E94490681E090E00E94C0
:101FD000300680E090E00E94CC0581E090E00E9415
:101FE000E505FE01EB58FF4F80819181813091051D
:101FF00009F082C081E090E00E94A80781E090E0B3
:102000000E94680580E090E8ABE3B5E48DAB9EAB41
:10201000AFABB8AF6DA97EA98FA998AD20E030E035
:102020004AE755E40E941316DC01CB0189AB9AAB59
:10203000ABABBCAB69A97AA98BA99CA920E030E025
:1020400040E85FE30E942C1588232CF481E090E0A7
:1020500098AB8FA73FC069A97AA98BA99CA920E05A
:102060003FEF4FE757E40E940F1618164CF56DA985
:102070007EA98FA998AD20E030E040E251E40E94B3
:102080001316DC01CB01BC01CD010E943015DC012F
:10209000CB0198AB8FA70FC080E991E09EA78DA7D9
:1020A0008DA59EA50197F1F79EA78DA78FA598A94D
:1020B000019798AB8FA78FA598A9009769F714C0CF
:1020C00069A97AA98BA99CA90E943015DC01CB01D2
:1020D00098AB8FA78FA598A99CA78BA78BA59CA52C
:1020E0000197F1F79CA78BA7FE01E359FF4F89E009
:1020F00090E09183808307C0FE01E359FF4F88E0A1
:1021000090E09183808381E090E00E94A80781E0C5
:1021100090E00E94700481E090E00E94620680E0FE
:1021200090E00E94360581E090E00E944F0581E03A
:1021300090E00E94680580E090E00E94810580E0C8
:1021400090E00E949A0581E090E00E94B30581E052
:1021500090E00E94040580E090E00E941D0580E070
:1021600090E00E94FE0581E090E00E94170680E06A
:1021700090E00E94490681E090E00E94300680E0F5
:1021800090E00E94CC0581E090E00E94E505FE0110
:10219000E159FF4F80819181009751F40E94D80747
:1021A000FE01E359FF4F8AE090E09183808331C2C2
:1021B0000E94EC0780E090E4A3E0B5E48FA398A729
:1021C000A9A7BAA76FA178A589A59AA520E030E0B4
:1021D0004AE755E40E941316DC01CB018BA39CA3B4
:1021E000ADA3BEA36BA17CA18DA19EA120E030E098
:1021F00040E85FE30E942C1588232CF481E090E0F6
:102200009AA389A33FC06BA17CA18DA19EA120E0D0
:102210003FEF4FE757E40E940F1618164CF56FA1D9
:1022200078A589A59AA520E030E040E251E40E941B
:102230001316DC01CB01BC01CD010E943015DC017D
:10224000CB019AA389A30FC080E991E098A38F8F57
:102250008F8D98A10197F1F798A38F8F89A19AA1EB
:1022600001979AA389A389A19AA1009769F714C03D
:102270006BA17CA18DA19EA10E943015DC01CB0138
:102280009AA389A389A19AA19E8F8D8F8D8D9E8DF2
:102290000197F1F79E8F8D8F0E94D807FE01E359B9
:1022A000FF4F8AE090E091838083B3C181E090E0AA
:1022B0000E94A80781E090E00E94700481E090E015
:1022C0000E94620681E090E00E94360580E090E086
:1022D0000E944F0581E090E00E94680580E090E058
:1022E0000E94810580E090E00E949A0581E090E0E4
:1022F0000E94B30581E090E00E94040580E090E038
:102300000E941D0580E090E00E94FE0581E090E0C3
:102310000E94170680E090E00E94490681E090E06C
:102320000E94300680E090E00E94CC0581E090E0C1
:102330000E94E50580E090E0AAEFB4E4898F9A8FCF
:10234000AB8FBC8F698D7A8D8B8D9C8D20E030E0BA
:102350004AE755E40E941316DC01CB018D8B9E8B5E
:10236000AF8BB88F6D897E898F89988D20E030E0A2
:1023700040E85FE30E942C1588232CF481E090E074
:102380009C8B8B8B3FC06D897E898F89988D20E0D7
:102390003FEF4FE757E40E940F1618164CF5698D72
:1023A0007A8D8B8D9C8D20E030E040E251E40E94DC
:1023B0001316DC01CB01BC01CD010E943015DC01FC
:1023C000CB019C8B8B8B0FC080E991E09A8B898B22
:1023D00089899A890197F1F79A8B898B8B899C89D6
:1023E00001979C8B8B8B8B899C89009769F714C014
:1023F0006D897E898F89988D0E943015DC01CB0113
:102400009C8B8B8B8B899C89988B8F878F859889E8
:102410000197F1F7988B8F8780E090E00E94A807E2
:1024200081E090E00E94C00781E090E00E94D60128
:10243000FE01E359FF4F8BE090E091838083E9C078
:1024400081E090E00E94C00781E090E00E94D60108
:1024500081E090E00E94620681E090E00E943605F3
:1024600080E090E00E944F0580E090E00E946805C7
:1024700081E090E00E94810580E090E00E949A0552
:1024800081E090E00E94B30581E090E00E940405A5
:1024900080E090E00E941D0580E090E00E94FE0533
:1024A00081E090E00E94170680E090E00E944906DB
:1024B00081E090E00E94300680E090E00E94CC0530
:1024C00081E090E00E94E50580E090E0AAEFB4E4AE
:1024D0008B879C87AD87BE876B857C858D859E8528
:1024E00020E030E04AE755E40E941316DC01CB01FE
:1024F0008F839887A987BA876F81788589859A8520
:1025000020E030E040E85FE30E942C1588232CF4A3
:1025100081E090E09E838D833FC06F8178858985BF
:102520009A8520E03FEF4FE757E40E940F161816F8
:102530004CF56B857C858D859E8520E030E040E202
:1025400051E40E941316DC01CB01BC01CD010E94B5
:102550003015DC01CB019E838D830FC080E991E0B3
:102560009C838B838B819C810197F1F79C838B8368
:102570008D819E8101979E838D838D819E810097A1
:1025800069F714C06F81788589859A850E94301516
:10259000DC01CB019E838D838D819E819A8389830B
:1025A00089819A810197F1F79A83898381E090E08C
:1025B0000E947D07FE01E958FF4F11821082FE0143
:1025C000EB58FF4F11821082FE01EF58FF4F11822E
:1025D0001082FE01E159FF4F11821082FE01E55980
:1025E000FF4F11821082FE01E759FF4F11821082C6
:1025F000FE01E959FF4F11821082FE01EB59FF4F96
:1026000011821082FE01E359FF4F81E090E0918337
:102610008083E9E0F1E08081882F90E08071907004
:10262000009709F067C0DE01AD59BF4FFE01ED59BB
:10263000FF4F80819181019611969C938E935AC091
:102640000E949D0780E00E94820181E090E00E944C
:10265000700481E090E00E94620680E090E00E94B9
:10266000360581E090E00E944F0580E090E00E94F6
:10267000680581E090E00E94810580E090E00E9482
:102680009A0581E090E00E94B30580E090E00E940E
:10269000040581E090E00E941D0580E090E00E942A
:1026A000FE0581E090E00E94170681E090E00E9424
:1026B000490680E090E00E94300680E090E00E94B1
:1026C000CC0581E090E00E94E505E9E0F1E0808141
:1026D000882F90E080719070009761F4DE01AD5911
:1026E000BF4FFE01ED59FF4F8081918101961196F8
:1026F0009C938E93FE01ED59FF4F808191818170F3
:102700009070009709F49CCFFE01ED59FF4F808136
:10271000918181709070882311F00C9496090C942B
:1027200052091F920F920FB60F9200905B000F920A
:1027300011248F939F93AF93BF93EF93FF93DF93F6
:10274000CF93CDB7DEB7E4E8F0E084E294E691837E
:102750008083AEE2B0E0EEE2F0E0808188608C93AE
:10276000A2E0B1E0E2E0F1E0808188608C93CF915B
:10277000DF91FF91EF91BF91AF919F918F910F905A
:1027800000925B000F900FBE0F901F9018951F9244
:102790000F920FB60F9200905B000F9211248F934F
:1027A000AF93BF93EF93FF93DF93CF93CDB7DEB794
:1027B000AEE2B0E0EEE2F0E08081877F8C93CF91D3
:1027C000DF91FF91EF91BF91AF918F910F900092A8
:1027D0005B000F900FBE0F901F9018951F920F92E5
:1027E0000FB60F9200905B000F9211248F93AF935E
:1027F000BF93EF93FF93DF93CF93CDB7DEB7A2E004
:10280000B1E0E2E0F1E08081877F8C93CF91DF91AE
:10281000FF91EF91BF91AF918F910F9000925B006C
:102820000F900FBE0F901F901895DF93CF93CDB7E9
:10283000DEB7ADE2B0E0EDE2F0E0808188608C933D
:10284000A1E0B1E0E1E0F1E0808188608C93E0E814
:10285000F0E01082E1E8F0E082E08083EFE6F0E073
:1028600087E08083E4E8F0E084E294E6918380836B
:1028700080E00E94421480E00E9481147894CF91FD
:10288000DF9108950F931F93DF93CF930F92CDB7EE
:10289000DEB7898389818C3974F1898185365CF54D
:1028A00008E810E08981992787FD9095A92FB92F15
:1028B000BC01CD010E945E15DC01CB01BC01CD0144
:1028C00020E030E040E251E40E941316DC01CB012D
:1028D000BC01CD0120E038EB4FED56E40E94C3145B
:1028E000DC01CB01BC01CD010E943015DC01CB0124
:1028F000F801918380830F90CF91DF911F910F9109
:1029000008950F931F93DF93CF930F92CDB7DEB748
:10291000898389818C3974F1898185365CF50AE86F
:1029200010E08981992787FD9095A92FB92FBC01C7
:10293000CD010E945E15DC01CB01BC01CD0120E080
:1029400030E040E251E40E941316DC01CB01BC01EF
:10295000CD0120E038EB4FED56E40E94C314DC01BA
:10296000CB01BC01CD010E943015DC01CB01F80187
:10297000918380830F90CF91DF911F910F910895E4
:10298000F894E3C15058BB27AA270ED00DC1FED042
:1029900030F003D120F031F49F3F11F41EF4F3C066
:1029A0000EF4E095E7FBE9C0E92F0FD180F3BA17E9
:1029B000620773078407950718F099F4C6F527C1D5
:1029C0000EF4E0950B2EBA2FA02D062E622F202D8F
:1029D000072E732F302D082E842F402D092E952F72
:1029E000502DFF27591B99F0593F50F4503E68F184
:1029F0001A16F040A22F232F342F4427585FF3CF0D
:102A0000469537952795A795F0405395C9F77EF4DD
:102A10001F16BA0B620B730B840BBAF09150A1F026
:102A2000FF0FBB1F661F771F881FC2F70EC0BA0FAC
:102A3000621F731F841F48F4879577956795B79534
:102A4000F7959E3F08F0AECF9395880F08F0992731
:102A5000EE0F9795879508956CD008F481E008955E
:102A6000BCD088F09F5790F0B92F9927B751A0F0AC
:102A7000D1F0660F771F881F991F1AF0BA95C9F712
:102A800012C0B13081F0C3D0B1E00895C0C0672F4B
:102A9000782F8827B85F39F0B93FCCF386957795C2
:102AA0006795B395D9F73EF49095809570956195AB
:102AB0007F4F8F4F9F4F0895E89409C097FB3EF4D6
:102AC00090958095709561957F4F8F4F9F4F99237B
:102AD000A9F0F92F96E9BB279395F69587957795F9
:102AE0006795B795F111F8CFFAF4BB0F11F460FFB9
:102AF0001BC06F5F7F4F8F4F9F4F16C0882311F011
:102B000096E911C0772321F09EE8872F762F05C024
:102B1000662371F096E8862F70E060E02AF09A95BF
:102B2000660F771F881FDAF7880F9695879597F9B4
:102B30000895990F0008550FAA0BE0E8FEEF16164E
:102B40001706E807F907C0F012161306E407F507A1
:102B500098F0621B730B840B950B39F40A2661F015
:102B6000232B242B252B21F408950A2609F4A140B8
:102B7000A6958FEF811D811D089597F99F6780E8C5
:102B800070E060E008959FEF80EC089500240A94BF
:102B90001616170618060906089500240A94121638
:102BA0001306140605060895092E0394000C11F46B
:102BB000882352F0BB0F40F4BF2B11F460FF04C018
:102BC0006F5F7F4F8F4F9F4F089557FD9058440F71
:102BD000551F59F05F3F71F04795880F97FB991F7C
:102BE00061F09F3F79F08795089512161306140639
:102BF000551FF2CF4695F1DF08C0161617061806C6
:102C0000991FF1CF86957105610508940895E894A0
:102C1000BB2766277727862F972F97F9089589DF97
:102C200008F48FEF08950AD0BFCFB0DF28F0B5DFEA
:102C300018F0952309F0A1CFA6CFEACFC6DFA8F3FD
:102C40009923D9F35523C9F3950F50E0551FAA27AF
:102C5000EE27FF27BB2700240894679520F4E20F96
:102C6000F31FB41F0A1E220F331F441FAA1F6695AD
:102C7000A9F7779530F4F30FB41F0A1E121E08F45B
:102C80006395330F441FAA1F221F769599F78795E6
:102C900020F4B40F0A1E121E631F440FAA1F221F26
:102CA000331F8695A9F7862F712D602D11249F570C
:102CB00050408AF0E1F088234AF0EE0FFF1FBB1F5F
:102CC000661F771F881F91505040A9F79E3F5105FE
:102CD00070F053CF9DCF5F3FECF3983EDCF38695C9
:102CE00077956795B795F795E7959F5FC1F7FE2BA9
:102CF000880F911D9695879597F9089597FB092E52
:102D000007260AD077FD04D00CD006D000201AF494
:102D1000709561957F4F0895F6F7909581959F4F37
:102D20000895AA1BBB1B51E107C0AA1FBB1FA61712
:102D3000B70710F0A61BB70B881F991F5A95A9F764
:0E2D400080959095BC01CD010895F894FFCFC9
:022D4E0064001F
:00000001FF
